:02000000AE2A26
:10000800FF00030E8301AC000A08AD008A017008E6
:10001800A3007108A2007208A1000B1D532825082F
:10002800133A031D192888302406031D4C28061A84
:1000380034280A3086050A3086043C3095004B3057
:100048009B00F101F20107307202031D2D28D03008
:10005800710203183328F10A0319F20A27284C28D9
:10006800861A4C2805308605053086044B309500E5
:100078004B309B00F101F20107307202031D462844
:10008800D030710203184C28F10A0319F20A4028EB
:10009800F8308100A60A0319A70AFB308B0523084C
:1000A800F0002208F1002108F2002D088A002C0E29
:0800B8008300FF0E7F0E09001A
:0E00C000F201F101F001F801F3010030080037
:1000CE007B15FB1F71280130F300F201F101F001E5
:0800DE00FA0DF20CFF300800DE
:0800E600FA1FF21300300800BC
:0600EE00FB15FF300800C5
:1000F400A0017208031D8F287108F2007008F10036
:10010400F001A0157208031D8F287108F200F10197
:10011400A0112016720803199D282008F302031D5C
:10012400031CA1280310F21BA528F00DF10DF20DFC
:10013400F30B9528A1280130FC006020A828023088
:0E014400FC006720A8280430FC00732008008F
:10015200FB14FB1FB328FF30F300F200F100F000A4
:08016200FA0DF20CFF30080059
:10016A007B14FB1FC028F201FA1FFF30F200F100D6
:0A017A00F000FA0DF20CFF3008004F
:1001840083120313FB01FC01FA017308031901290B
:10019400F2178E30F302F31BD2280319D228042954
:1001A400F309F30A08307302031CE728F300F10D86
:1001B4007208F100F20108307302031CE728F10D04
:1001C400F1017308031D0310EF2873080319EF28C6
:1001D4000310F20CF10CF30BEA287B1B711CF928B9
:1001E400031CF928F10A0319F20AF21B1029FA1F59
:1001F4001329F209F109F10A0319F20A1329F20188
:10020400F10113297B14FB1F1629F201FA1F162989
:10021400FF30F200F100FA0DF20C16290130FC0057
:1002240018290030FC001829FF30FC00FC080319D1
:0E0234001C29B5207108F0007208F1000800C6
:10024200831203137008F8007108F000F101F20143
:10025200F301FB01FC019630F300FA017008F10092
:0C0262007808F000F801F2017A20080092
:10026E0083120313A601A7012F082702031D41299C
:10027E002E082602031844293B292F08133A031D82
:10028E004A2988302E06031D50298830A4001330C9
:04029E00A5000800AF
:1002A200831203137408003A031D6C297508003A7F
:1002B200031D6C297608003A031D6C297708003A61
:1002C200031D6C29FF30F000FF30F1007F30F20097
:1002D200FF30F300072A8312031377080319FB295F
:1002E20073080319FE29720876068039FA00F2179C
:1002F200F617A0017208F8007108FC007008FD00F2
:100302007408FD027508031C750FFC027608031CB5
:10031200760FF802F801FC01FD01031C9729031076
:10032200F20CF10CF00CF80C0130A0007708F3028B
:10033200031CA1297E302007F3070318012AA629EE
:100342007E302007F307031C042A1830FA07FD0D3C
:10035200FC0DF80DF00DF10DF20DA00D7408F00278
:100362007508031C750FF1027608031C760FF20262
:10037200760DA004201CBF297D14CA297408F00739
:1003820075080318750FF10776080318760AF20745
:100392007D10FA031F307A05031DA8297B1B7D1CE3
:1003A200F1290310F00DF10DF20DA00D7408F00209
:1003B2007508031C750FF1027608031C760FF20212
:1003C200760D20040139FD070318FC0A0319F80A07
:1003D200031DF129F80CFC0CFD0CF30A0319012A88
:1003E200FA1FF8137808F2007C08F1007D08F0008B
:1003F2000030062A01307720062A02306020062AC1
:0E0402000430A920062A0830672000000800F8
:0E041000831203132B088A002A0882000800BA
:10041E0083120313061A212A0A3086050A3086042F
:10042E003C3095004B309B001030AE002730AF00B3
:10043E003721A12A861A312A053086050530860411
:10044E004B3095004B309B001030AE002730AF0084
:10045E003721A12A8F018E0188140130AE000030A1
:10046E00AF00372100308805A601A7010818492AD8
:10047E002708003C031D452A2608023C0318482A7B
:10048E00492A3D2A11309005081C4E2A4B2A10305D
:10049E0090050F08F100F0010E08F0040030F10491
:1004AE007008A8007108A9002121AE30F400473071
:1004BE00F5006B30F6008430F7005121C220700831
:1004CE00A8007108A9007008013EF2000030031860
:1004DE00013E7107F3007208A8007308A9000030EE
:1004EE007302031D7C2A02307202031C942A29080F
:1004FE00003C031D842A28081E3C031C942A0A3043
:10050E0086050A3086044B3095003C309B00103037
:10051E00AE002730AF003721A12A05308605053001
:10052E0086044B3095004B309B001030AE002730C8
:06053E00AF0037210800A8
:1005440008228A110A128000840AAA0A0319AB0A33
:08055400F003031DA22A0800B8
:10055C0083120313A401A501A601A701F030831691
:10056C00860083128601831687018312870101306E
:10057C008316880083128801F83081008730831637
:10058C008100A0308B0088308312AE001330AF0096
:10059C003721273092000C3097000C309D00FA3038
:1005AC00831692001030831290000F22DB2ADD2A72
:02400E004A2F37
:00000001FF
